:0C08F4000A0F3F065B4F666D7D077F6FAB
:1008D400E4FDFCC3ED9FEC9E5015E4FBFA0BBB005A
:0F08E400010ABA20F8BBD0F50DBD00010C80E46D
:0108F30022E2
:10088C00E4F5B0F5A0750E01D2B0C2B1E50E75F06D
:10089C000A84F508740F2509F8E6F5A07F017E009F
:1008AC001208D4C2B0D2B1E50E75F00A8485F009F5
:1008BC00740F2508F8E6F5A07F041208D4050EE5A0
:0808CC000EC3946440C280BD1C
:03000000020800F3
:0C080000787FE4F6D8FD758118020847E7
:10080C0002088CE493A3F8E493A34003F68001F26E
:10081C0008DFF48029E493A3F85407240CC8C333ED
:10082C00C4540F4420C8834004F456800146F6DFBC
:10083C00E4800B01020408102040809008F4E47E50
:10084C00019360BCA3FF543F30E509541FFEE493B1
:10085C00A360010ECF54C025E060A840B8E493A378
:10086C00FAE493A3F8E493A3C8C582C8CAC583CAA3
:10087C00F0A3C8C582C8CAC583CADFE9DEE780BE5B
:0109000000F6
:00000001FF
